:020000040000FA
:10000000E0020010690100007101000073010000AE
:100010007501000077010000790100000000000078
:100020000000000000000000000000007B01000054
:100030007D010000000000007F0100008101000040
:1000400083010000830100008301000083010000A0
:100050008301000083010000830100008301000090
:100060008301000083010000830100008301000080
:100070008301000083010000830100008301000070
:100080008301000083010000830100008301000060
:100090008301000083010000830100008301000050
:1000A0008301000083010000830100008301000040
:1000B0008301000083010000830100008301000030
:1000C00083010000830100008301000000F002F8BA
:1000D00000F03AF80AA090E8000C82448344AAF1A8
:1000E0000107DA4501D100F02FF8AFF2090EBAE8A6
:1000F0000F0013F0010F18BFFB1A43F0010318475C
:100100001801000038010000103A24BF78C878C1F7
:10011000FAD8520724BF30C830C144BF04680C600D
:10012000704700000023002400250026103A28BF55
:1001300078C1FBD8520728BF30C148BF0B60704759
:100140001FB51FBD10B510BD00F02FF81146FFF709
:10015000F7FF00F07EF900F04DF803B4FFF7F2FF6F
:1001600003BC00F051F800000948804709480047E7
:10017000FEE7FEE7FEE7FEE7FEE7FEE7FEE7FEE757
:10018000FEE7FEE704480549034A054B70470000B7
:1001900069060000CD000000E0000010E002001041
:1001A000E0000010704770477047754600F028F86F
:1001B000AE4605006946534620F00700854618B054
:1001C00020B5FFF7DFFFBDE820404FF000064FF0FD
:1001D00000074FF000084FF0000B21F00701AC467C
:1001E000ACE8C009ACE8C009ACE8C009ACE8C0099B
:1001F0008D4670470446AFF300802046FFF7ADFF01
:10020000004870477C00001001491820ABBEFEE793
:100210002600020070470000DC080000000000100B
:1002200070000000080100004C0900007000001080
:100230007002000024010000000000000000000027
:1002400000000000000000000000000000000000AE
:10025000000000000000000000000000000000009E
:10026000000000000000000000000000000000008E
:10027000000000000000000000000000000000007E
:10028000000000000000000000000000000000006E
:10029000000000000000000000000000000000005E
:1002A000000000000000000000000000000000004E
:1002B000000000000000000000000000000000003E
:1002C000000000000000000000000000000000002E
:1002D000000000000000000000000000000000001E
:1002E000000000000000000000000000000000000E
:1002F000000000000000000000000000FFFFFFFF02
:10030000002100BF00E0491C8142FCD3704700B5CA
:1003100003465901C048C1822021BF484030417680
:100320004FF47A70FFF7ECFF2021BB484030417753
:1003300041F28830FFF7E4FF00BD00200021B74AFA
:10034000117010E000BFB649097D11F0010FFAD01D
:10035000B3490878B349B14A12788854AF4909784B
:10036000491CAE4A1170AD4909780C29EADB00211D
:10037000AA4A117011E0AB49A84A1278895CAA4ACE
:10038000117000BFA849097D01F020012029F9D191
:10039000A2490978491CA14A1170A04909780C2981
:1003A000E9DD7047A148006840F00070A049C1F83D
:1003B000C4004FF070609F4948624FF08300984935
:1003C00008734FF0750008704FF0000008714FF08F
:1003D0001000994908704FF00700914908724FF0DA
:1003E00003000873704791480068944940EA01008F
:1003F0008F49C1F8C4004FF050008E4908604FF09B
:100400008300894908734FF0750008704FF00000B1
:1004100008714FF010008A4908704FF007008249B8
:1004200008724FF003000873704700217A4840308B
:100430004174FF20834908707748408A7649488292
:10044000084640884FF6FF7140EA01007249488033
:10045000704700F009F9FFF7E8FFDF216E48203010
:10046000C1742020784908704FF000006A49087470
:100470004FF003000870FFF7B6FFFFF793FF00206F
:10048000664908700AE07149644A1278885CFFF78F
:100490003EFF62480078401C604908705F48007861
:1004A0000528F0DB4CF25030FFF72AFF08216548A1
:1004B000401E41760020594908700AE06449574AB5
:1004C0001278885CFFF723FF54480078401C53499A
:1004D00008705F4851490978405C0028EED103203C
:1004E0004D49087790E0FFF728FF00205949087030
:1004F00084E0002058490860484908701AE05548CF
:10050000007800EB800101EBC000544908444349E6
:100510000978415C4348414A1278805C814204D1A9
:100520004D480068401C4C4908603C480078401C1D
:100530003A490870394800780C28E0DB46480068E2
:100540000C2832D108213F48401E4177C020FFF7D8
:10055000DEFE08213B48401E417600202F490870EE
:100560000AE03F492D4A1278885CFFF7D0FE2B48FD
:100570000078401C29490870394828490978405CAE
:100580000028EED120213048C01EC1760320224928
:1005900008766FF07E40FFF7B3FE20212A48C01E88
:1005A000C17703201C4908772DE008212548401E0B
:1005B0004177C020FFF7ABFE08212248401E41765C
:1005C0000020164908700AE02649144A1278885C0F
:1005D000FFF79DFE11480078401C10490870214823
:1005E0000E490978405C0028EED120211648C01E33
:1005F000C17718480078401C1649087015480078E3
:100600000328FFF676AF00BF6DE7002100E0491C2C
:100610008142FCD37047000000C00920590000103F
:1006200000C009407000001000C00040C4C00F406E
:1006300000C00F4000C0024028C009400800400030
:1006400028C0004041C0092023C00920000000103C
:100650000500001068000010640000102500001064
:10066000190000104C00001000202021884A116061
:1006700000BF8749096811F0400FFAD00321854A6D
:1006800011604FF00001844AC2F8A811834A11603A
:100690004FF00101824A11604FF00B01814A116055
:1006A0004FF00101A2F1040211604FF0AA017E4A4D
:1006B00011604FF05501784AC2F88C1078490968EA
:1006C000022906D000BF7949096811F0806FFAD07D
:1006D00004E0002000E0401C6428FCD90321744A97
:1006E00011604FF0AA016C4AC2F88C104FF055010E
:1006F0006D4A11604FF023016E4A11604FF0010105
:10070000A2F1040211604FF0AA016B4A11604FF090
:100710005501116000BF6949096811F4806FFAD072
:100720000321674A11604FF0AA015B4AC2F8AC107E
:100730004FF05501604A11606249634A11604FF001
:100740000001624A116043F23A01534A1160704756
:1007500056480068C0F30160032868D1504800681B
:1007600010F0030006D0012823D002283FD0032830
:100770005CD100E000BF4D480068C0F30E0000F1FE
:1007800001004FEA40014448D0F88800C0F3074018
:1007900000F10100B1FBF0F04D4900FB01F03D49D3
:1007A0000968C9B201F10101B0FBF1F049490860E3
:1007B0003CE03E480068C0F30E0000F101004FEA43
:1007C00040013548D0F88800C0F3074000F101002F
:1007D000B1FBF0F0404900FB01F02E490968C9B2B5
:1007E00001F10101B0FBF1F03A4908601EE02F4829
:1007F0000068C0F30E0000F101004FEA40012648F6
:10080000D0F88800C0F3074000F10100B1FBF0F020
:100810004FF4FA4100FB01F01E490968C9B201F129
:100820000101B0FBF1F02B49086000BF2FE01C482C
:10083000006810F0030006D0012810D0022819D05B
:10084000032823D100E000BF12480068C0B200F1C5
:1008500001001F49B1FBF0F01E49086016E00D4889
:100860000068C0B200F101001B49B1FBF0F019496A
:1008700008600BE007480068C0B200F101004FF4C7
:10088000FA41B1FBF0F01349086000BF00BF7047A8
:10089000A0C10F4004C10F4000C00F40ACC10F40C9
:1008A0000CC10F4084C00F408CC00F4088C00F4067
:1008B00080C00F40A4C00F40ACC00F40A8C00F4084
:1008C000A0C00F40DE872804C4C00F40C8C10F403D
:1008D00000093D006C000010001BB700380E060137
:1008E00080524649442041757468656E746963613D
:1008F00074696F6E004D6174636865642020202008
:1009000000303930303832304135434444003039DA
:1009100030303832303731303943003039303038C8
:1009200032303730353839006E6F745F6D61746303
:100930006865640000000000000000000000000086
:0C094000000000000000000000093D0065
:04000005000000CD2A
:00000001FF
