:020000040000FA
:100000006802001069010000710100007301000026
:100010007501000077010000790100000000000078
:100020000000000000000000000000007B01000054
:100030007D010000000000007F0100008101000040
:1000400083010000830100008301000083010000A0
:100050008301000083010000830100008301000090
:100060008301000083010000830100008301000080
:100070008301000083010000830100008301000070
:100080008301000083010000830100008301000060
:100090008301000083010000830100008301000050
:1000A0008301000083010000830100008301000040
:1000B0008301000083010000830100008301000030
:1000C00083010000830100008301000000F002F8BA
:1000D00000F03AF80AA090E8000C82448344AAF1A8
:1000E0000107DA4501D100F02FF8AFF2090EBAE8A6
:1000F0000F0013F0010F18BFFB1A43F0010318475C
:10010000E804000008050000103A24BF78C878C150
:10011000FAD8520724BF30C830C144BF04680C600D
:10012000704700000023002400250026103A28BF55
:1001300078C1FBD8520728BF30C148BF0B60704759
:100140001FB51FBD10B510BD00F017FA1146FFF71F
:10015000F7FF00F075F800F035FA03B4FFF7F2FF8F
:1001600003BC00F039FA00000948804709480047FD
:10017000FEE7FEE7FEE7FEE7FEE7FEE7FEE7FEE757
:10018000FEE7FEE704480549034A054B70470000B7
:1001900001030000CD00000068000010680200109C
:1001A00068000010002100E0491C8142FCD3704728
:1001B000DF214448C17420204349087070474348F8
:1001C000006840F000504249C1F8C400414800684E
:1001D00040F070603F4908604FF083003E4908736B
:1001E0004FF0000008714FF0750008704FF01000DC
:1001F0003A4908704FF00300374908737047334895
:100200000068374940EA01003149C1F8C40031486B
:10021000006840F050002F4908604FF083003149DA
:1002200008734FF0000008714FF0750008704FF030
:1002300010002D4908704FF003002A4908737047D9
:1002400094B02AA30FCBCDE91223CDE9100100F021
:1002500057F8FFF7D4FFFFF7B2FFFFF7A9FF202100
:100260001848C1762DE000250BE000BF1D48007D39
:1002700010F0010FFAD01B4800780DF80500681C3B
:10028000C5B20C2DF1DB00208DF80C0000260024F7
:100290000AE010A8005D1DF80410884201D1761C08
:1002A00000E00026601CC4B20C2CF2DB4EB1202111
:1002B0000448C1764FF4A000FFF774FF20210148E5
:1002C000C177D0E720C0092023C00920C4C00F4057
:1002D00000C00F4000C0024000C0094028C00940D3
:1002E0000010000300C0004028C00040303930300A
:1002F000383230364339343400000000FFFFFFFF4E
:1003000000202021884A116000BF8749096811F048
:10031000400FFAD00321854A11604FF00001844A52
:10032000C2F8A811834A11604FF00101824A11609E
:100330004FF00B01814A11604FF00101A2F104025C
:1003400011604FF0AA017E4A11604FF05501784AC2
:10035000C2F88C1078490968022906D000BF794993
:10036000096811F0806FFAD004E0002000E0401C22
:100370006428FCD90321744A11604FF0AA016C4A29
:10038000C2F88C104FF055016D4A11604FF02301F7
:100390006E4A11604FF00101A2F1040211604FF0AA
:1003A000AA016B4A11604FF05501116000BF694905
:1003B000096811F4806FFAD00321674A11604FF089
:1003C000AA015B4AC2F8AC104FF05501604A1160B7
:1003D0006249634A11604FF00001624A116043F2C2
:1003E0003A01534A1160704756480068C0F30160F3
:1003F000032868D15048006810F0030006D0012897
:1004000023D002283FD003285CD100E000BF4D4834
:100410000068C0F30E0000F101004FEA40014448BB
:10042000D0F88800C0F3074000F10100B1FBF0F004
:100430004D4900FB01F03D490968C9B201F10101D4
:10044000B0FBF1F0494908603CE03E480068C0F369
:100450000E0000F101004FEA40013548D0F8880055
:10046000C0F3074000F10100B1FBF0F0404900FB90
:1004700001F02E490968C9B201F10101B0FBF1F0A8
:100480003A4908601EE02F480068C0F30E0000F1F2
:1004900001004FEA40012648D0F88800C0F3074029
:1004A00000F10100B1FBF0F04FF4FA4100FB01F064
:1004B0001E490968C9B201F10101B0FBF1F02B49F5
:1004C000086000BF2FE01C48006810F0030006D051
:1004D000012810D0022819D0032823D100E000BF42
:1004E00012480068C0B200F101001F49B1FBF0F0F2
:1004F0001E49086016E00D480068C0B200F1010016
:100500001B49B1FBF0F0194908600BE0074800688F
:10051000C0B200F101004FF4FA41B1FBF0F0134911
:10052000086000BF00BF7047A0C10F4004C10F406A
:1005300000C00F40ACC10F400CC10F4084C00F4041
:100540008CC00F4088C00F4080C00F40A4C00F4037
:10055000ACC00F40A8C00F40A0C00F40DE872804E9
:10056000C4C00F40C8C10F4000093D00000000108A
:10057000001BB700704770477047754600F028F8B9
:10058000AE4605006946534620F00700854618B080
:1005900020B5FFF7F7FDBDE820404FF000064FF013
:1005A00000074FF000084FF0000B21F00701AC46A8
:1005B000ACE8C009ACE8C009ACE8C009ACE8C009C7
:1005C0008D4670470446AFF300802046FFF7C5FD17
:1005D000004870470400001001491820ABBEFEE738
:1005E000260002007047000008060000000000100E
:1005F00004000000080100000C06000004000010C8
:0C060000640200002401000000093D001D
:04000005000000CD2A
:00000001FF
