:020000040000FA
:100000006802001069010000710100007301000026
:100010007501000077010000790100000000000078
:100020000000000000000000000000007B01000054
:100030007D010000000000007F0100008101000040
:1000400083010000830100008301000083010000A0
:100050008301000083010000830100008301000090
:100060008301000083010000830100008301000080
:100070008301000083010000830100008301000070
:100080008301000083010000830100008301000060
:100090008301000083010000830100008301000050
:1000A0008301000083010000830100008301000040
:1000B0008301000083010000830100008301000030
:1000C00083010000830100008301000000F002F8BA
:1000D00000F03AF80AA090E8000C82448344AAF1A8
:1000E0000107DA4501D100F02FF8AFF2090EBAE8A6
:1000F0000F0013F0010F18BFFB1A43F0010318475C
:100100001C0C00003C0C0000103A24BF78C878C1D9
:10011000FAD8520724BF30C830C144BF04680C600D
:10012000704700000023002400250026103A28BF55
:1001300078C1FBD8520728BF30C148BF0B60704759
:100140001FB51FBD10B510BD00F02FF81146FFF709
:10015000F7FF00F00CF900F04DF803B4FFF7F2FFE1
:1001600003BC00F051F800000948804709480047E7
:10017000FEE7FEE7FEE7FEE7FEE7FEE7FEE7FEE757
:10018000FEE7FEE704480549034A054B70470000B7
:1001900079040000CD000000680000106802001023
:1001A00068000010704770477047754600F028F8E7
:1001B000AE4605006946534620F00700854618B054
:1001C00020B5FFF7DFFFBDE820404FF000064FF0FD
:1001D00000074FF000084FF0000B21F00701AC467C
:1001E000ACE8C009ACE8C009ACE8C009ACE8C0099B
:1001F0008D4670470446AFF300802046FFF7ADFF01
:10020000004870470400001001491820ABBEFEE70B
:10021000260002007047000021F00042A2F1605267
:10022000B2F5801F01F0004328BFD2F17F6C0BD9DB
:100230005FEA001C43EAC20242EB507018BF7047ED
:1002400028BF20F001007047B2F5801FBCBF1846E0
:1002500070474FEA410C1CF5001F02D2084600F01F
:1002600044B870B500F044FC00000089FFF7F6BF09
:100270004FF00040A0F58000704710F0004248BFEA
:100280004042B0FA80F310FA03F10AD0C3F11D0323
:1002900003F580634FEA415002EB035202EBD12198
:1002A00070474FF0000070470808A0F500114FEAB2
:1002B0003101704741000B0ED3F19E0208D950F472
:1002C00000034FEA032323FA02F048BF404270477D
:1002D00010B500F0DCFC00BF49922480002070477C
:1002E0006FF0004282EA20007047FF2141EAD050BF
:1002F000C00570470000000000000000FFFFFFFF86
:1003000000204FF0402108671820C8600220486094
:10031000704702204FF0402148600120486070473C
:1003200000204FF040214860084680687047022155
:100330004FF0402251600121516000BF4FF0402139
:1003400089688142FAD300214FF040225160704702
:1003500000B503464FF47A7103FB01F0FFF7E7FFA6
:1003600000BD002100E0491C8142FCD370471CB550
:10037000002001900090FFF7C3FF00213948C174AD
:10038000006840F40010374908600846006820F40F
:10039000800008600846C06940F40010C861DF2191
:1003A00030482030C17420202F49087000F064F8D4
:1003B00056E0002000902B48406940F40010294985
:1003C00048610A20FFF7B3FF2648C06940F40010D7
:1003D0002449C86100BF2348406910F4800FFAD057
:1003E000FFF797FF00BF1F48406910F4800FFAD154
:1003F000FFF796FF01900198FFF73FFF06461B4A63
:100400001B4B00F0CBFA044600224FF0804300F073
:100410006DF98046FFF700FF00901649009800F044
:10042000B5FB0446FFF746FF8246BAF1140F17D218
:100430004FF0000B11E020210B48C01EC1764FF495
:10044000A020FFF78EFF20210748C01EC1774FF480
:10045000A020FFF786FF0BF1010BBBF1140FEAD3CD
:10046000A7E7000000C0092023C00920006F810415
:10047000C58FA13F0000C84200202021884A11609A
:1004800000BF8749096811F0400FFAD00321854A5F
:1004900011604FF00001844AC2F8A811834A11602C
:1004A0004FF00101824A11604FF00B01814A116047
:1004B0004FF00101A2F1040211604FF0AA017E4A3F
:1004C00011604FF05501784AC2F88C1078490968DC
:1004D000022906D000BF7949096811F0806FFAD06F
:1004E00004E0002000E0401C6428FCD90321744A89
:1004F00011604FF0AA016C4AC2F88C104FF0550100
:100500006D4A11604FF023016E4A11604FF00101F6
:10051000A2F1040211604FF0AA016B4A11604FF082
:100520005501116000BF6949096811F4806FFAD064
:100530000321674A11604FF0AA015B4AC2F8AC1070
:100540004FF05501604A11606249634A11604FF0F3
:100550000001624A116043F23A01534A1160704748
:1005600056480068C0F30160032868D1504800680D
:1005700010F0030006D0012823D002283FD0032822
:100580005CD100E000BF4D480068C0F30E0000F1F0
:1005900001004FEA40014448D0F88800C0F307400A
:1005A00000F10100B1FBF0F04D4900FB01F03D49C5
:1005B0000968C9B201F10101B0FBF1F049490860D5
:1005C0003CE03E480068C0F30E0000F101004FEA35
:1005D00040013548D0F88800C0F3074000F1010021
:1005E000B1FBF0F0404900FB01F02E490968C9B2A7
:1005F00001F10101B0FBF1F03A4908601EE02F481B
:100600000068C0F30E0000F101004FEA40012648E7
:10061000D0F88800C0F3074000F10100B1FBF0F012
:100620004FF4FA4100FB01F01E490968C9B201F11B
:100630000101B0FBF1F02B49086000BF2FE01C481E
:10064000006810F0030006D0012810D0022819D04D
:10065000032823D100E000BF12480068C0B200F1B7
:1006600001001F49B1FBF0F01E49086016E00D487B
:100670000068C0B200F101001B49B1FBF0F019495C
:1006800008600BE007480068C0B200F101004FF4B9
:10069000FA41B1FBF0F01349086000BF00BF70479A
:1006A000A0C10F4004C10F4000C00F40ACC10F40BB
:1006B0000CC10F4084C00F408CC00F4088C00F4059
:1006C00080C00F40A4C00F40ACC00F40A8C00F4076
:1006D000A0C00F40DE872804C4C00F40C8C10F402F
:1006E00000093D0000000010001BB7002DE9C041CB
:1006F00030B4DFF8A0C23CEA111418BF3CEA13146E
:1007000000F0EC8081EA03051CEA111444EAD57478
:1007100018BF1CEA131500F0C780A4EB05044FF0C6
:10072000004545EAC12145EAC32341EA505143EA65
:10073000525304F17F74994204F500344FEAC0200B
:100740004FEAC22208BF904200F09C804FEA136536
:100750000FF24016765D4FEA134506FB05F7C7F129
:10076000807706FB07F74FEAD737A7FB0368764287
:10077000C8F58038A7FB06CE38BFA8F1010807FBF3
:1007800008E64FF0000EA6FB028CE6FB03CEDCF180
:10079000000CCEF1004E38BFAEF1010EA6FB0C5896
:1007A0004FF000074FF00005E6FB0E87A1FB08C6DF
:1007B000A0FB07CE16EB0E0645F10005E1FB076531
:1007C00015F1E04E7EBFA4F580345FEA46066D4128
:1007D00016F1800745F100054FEA17274FEA066634
:1007E00047EA0567A6F1DE46B6F1805F4FEA1525B8
:1007F0001FD9384624F0010C05EBC471BCF1FE6F23
:1008000001EB0C1102D8F0BCBDE8008124425CBFB2
:1008100001F5801E9EEAC47F02D4F0BCBDE80081D1
:10082000244238D4F0BCA1F1C041BDE80041FFF73B
:100830003BBD4FEAD22242EA43524FEAD323A7FB01
:1008400002864FEAD02040EA415007FB03661EEAC9
:100850000E0F4FEAD12105FB026658BFA6EB0056EA
:10086000B6EB00564FEA520E4EEAC37E18EB0E0E60
:1008700056EB530EBDD518EB02085E417F1C55F1B7
:100880000005B6E74FF480154FF000074FF0000663
:100890004FF00008ADE7F0BC4FF0000001F1C0419F
:1008A00001F00041BDE8008111EA0C1F0CEA1315AC
:1008B00000D00CE013EA0C1F00F025804FF0000080
:1008C000F0BC81EA030101F00041BDE80081F0BC09
:1008D000BDE8004181EA0301FFF7E6BCF0BCBDE8DA
:1008E000004170B500F004F9097EFC3E00F007B845
:1008F00081EA03014FF0000001F00041704781EAF6
:100900000301FFF7D1BCF0BCBDE800414FF000008F
:1009100021497047FFFDFBF9F7F5F4F2F0EEEDEB3E
:10092000E9E8E6E4E3E1E0DEDDDBDAD8D7D5D4D3ED
:10093000D1D0CFCDCCCBCAC8C7C6C5C4C2C1C0BF39
:10094000BEBDBCBBBAB9B8B7B6B5B4B3B2B1B0AF3F
:10095000AEADACABAAA9A8A8A7A6A5A4A3A3A2A123
:10096000A09F9F9E9D9C9C9B9A99999897979695DE
:1009700095949393929191908F8F8E8E8D8C8C8B7A
:100980008B8A898988888787868585848483838202
:10099000828181800000FF070000F87FDFF848C1F6
:1009A00070B51CEA111E1EBF1CEA13159EEA0C0F3F
:1009B00095EA0C0F00F06F8081EA030423EA4C13E0
:1009C0004EEAD47E21EA4C1141F4801143F48013A5
:1009D000AE44A1FB024CA0FB0365AEF17F7E36194D
:1009E00055EB0C05A1FB034C4CF10003A0FB021CD2
:1009F00016EB0C06654153F10003094218BF46F09F
:100A0000010613F4007F0BD14FEA03314FEA0530A2
:100A1000340341EA155140EA16506FF003020AE030
:100A20004FEAC3214FEAC520F40241EA555140EA9A
:100A300056506FF0020202EB2E4201EB025585EA9E
:100A4000CE710AD05FEA440C18BF24F0004450F184
:100A5000000041F1000120EAD47040F2FE7C6245C2
:100A600000D270BDA84214BF4FF080444FF0404404
:100A7000002E08BF0024BEF1806FA8BFA1F1C041C5
:100A8000BDE87040BFF610AC4FF0000001F1C0416E
:100A900001F0004170479EEA0C0F0CEA131518BFD5
:100AA00095EA0C0F06D04FF0000081EA030E0EF01D
:100AB000004170BD00F01CF88900013E00F007B84D
:100AC00000F009B84FEA430C5FEA5C5C08D081EAA9
:100AD0000301FFF7E9BB4FEA410C5FEA5C5CF6D12A
:100AE0004FF00000014970470000FF070000F87F49
:100AF0000EF1020E2EF0030E5EF8046B364205D4A2
:100B0000012A43EB030515F5001F12D8012841EB1C
:100B1000010C1CF5001F0CD80ED14FEAD17C15F545
:100B2000001F0CEB4C0C0CF1020C08BF4CEBD37CFF
:100B300004E04FF0080C01E04FEAD37C0CEB4C05CD
:100B400026FA05F606F00706B6F1040C06D20EEBFF
:100B5000860CBDE870404CF0010C6047DFE80CF0FB
:100B6000090B02024FF000414FF00000A1F50021F7
:100B700070BD19461046012851EB010418BFD4F589
:100B8000001484BF002001F0004170BD4FF47F0CC1
:100B90001CEAD0121EBF1CEAD11392EA0C0F93EA92
:100BA0000C0F00F0478090EA010F48BF42F48072BA
:100BB0004FF0004C4CEA00204CEA012102EB03020A
:100BC000A0FB0113A2F50002002918BF43F00103A6
:100BD0005B0028BF4FEA330342EB22425FEA132C4B
:100BE0004CEBC2502EBFBCEB436FB2F57C0F70478D
:100BF0004FEA036CBCF1004F08BF20F00100B2F5D2
:100C00007C0F38BF70470BD582F0FF0212F5803F92
:100C1000C8BF704700F1C040D8BF00F00040704727
:100C200000F5000C5FEA4C0C48BF7047B0F1C040C3
:100C3000FFF75BBB90EA010F0CEAD11348BF42F407
:100C40008072624538BF634504D280EA010000F03B
:100C50000040704710B500F01AF800BF8900013E4F
:100C600000F007B800F009B85FEA410C5FEA1C6CBD
:100C700008D080EA0100FFF738BB5FEA400C5FEA6A
:100C80001C6CF6D14FF00040A0F5800070470EF1CB
:100C9000020E2EF0030E5EF8044B244204D44FEAF9
:100CA0004102B2F17F4F11D84FEA4003B3F17F4FB9
:100CB0000CD80ED14FEAD07CB2F17F4F0CEB4C0C2C
:100CC0000CF1020C08BF4CEBD17C04E04FF0080C97
:100CD00001E04FEAD17C0CEB4C0324FA03F404F05E
:100CE0000704B4F1040C06D20EEB840CBDE81040EE
:100CF0004CF0010C6047DFE80CF0070802024FF0EF
:100D00000040A0F5800010BD0846420018BFD2F197
:100D1000807288BF00F0004010BD00003C0D000054
:100D2000000000100400000008010000400D000059
:100D300004000010640200002401000000093D00CE
:04000005000000CD2A
:00000001FF
