:020000040000FA
:10000000700200106901000071010000730100001E
:100010007501000077010000790100000000000078
:100020000000000000000000000000007B01000054
:100030007D010000000000007F0100008101000040
:1000400083010000830100008301000083010000A0
:100050008301000083010000830100008301000090
:100060008301000083010000830100008301000080
:100070008301000083010000830100008301000070
:100080008301000083010000830100008301000060
:100090008301000083010000830100008301000050
:1000A0008301000083010000830100008301000040
:1000B0008301000083010000830100008301000030
:1000C00083010000830100008301000000F002F8BA
:1000D00000F03AF80AA090E8000C82448344AAF1A8
:1000E0000107DA4501D100F02FF8AFF2090EBAE8A6
:1000F0000F0013F0010F18BFFB1A43F0010318475C
:100100001801000038010000103A24BF78C878C1F7
:10011000FAD8520724BF30C830C144BF04680C600D
:10012000704700000023002400250026103A28BF55
:1001300078C1FBD8520728BF30C148BF0B60704759
:100140001FB51FBD10B510BD00F02FF81146FFF709
:10015000F7FF00F06AFA00F04DF803B4FFF7F2FF82
:1001600003BC00F051F800000948804709480047E7
:10017000FEE7FEE7FEE7FEE7FEE7FEE7FEE7FEE757
:10018000FEE7FEE704480549034A054B70470000B7
:1001900001030000CD00000070000010700200108C
:1001A00070000010704770477047754600F028F8DF
:1001B000AE4605006946534620F00700854618B054
:1001C00020B5FFF7DFFFBDE820404FF000064FF0FD
:1001D00000074FF000084FF0000B21F00701AC467C
:1001E000ACE8C009ACE8C009ACE8C009ACE8C0099B
:1001F0008D4670470446AFF300802046FFF7ADFF01
:10020000004870471000001001491820ABBEFEE7FF
:100210002600020070470000800700000000001068
:1002200010000000080100009007000010000010FE
:100230006002000024010000000000000000000037
:1002400000000000000000000000000000000000AE
:10025000000000000000000000000000000000009E
:10026000000000000000000000000000000000008E
:10027000000000000000000000000000000000007E
:10028000000000000000000000000000000000006E
:10029000000000000000000000000000000000005E
:1002A000000000000000000000000000000000004E
:1002B000000000000000000000000000000000003E
:1002C000000000000000000000000000000000002E
:1002D000000000000000000000000000000000001E
:1002E000000000000000000000000000000000000E
:1002F000000000000000000000000000FFFFFFFF02
:1003000000202021884A116000BF8749096811F048
:10031000400FFAD00321854A11604FF00001844A52
:10032000C2F8A811834A11604FF00101824A11609E
:100330004FF00B01814A11604FF00101A2F104025C
:1003400011604FF0AA017E4A11604FF05501784AC2
:10035000C2F88C1078490968022906D000BF794993
:10036000096811F0806FFAD004E0002000E0401C22
:100370006428FCD90321744A11604FF0AA016C4A29
:10038000C2F88C104FF055016D4A11604FF02301F7
:100390006E4A11604FF00101A2F1040211604FF0AA
:1003A000AA016B4A11604FF05501116000BF694905
:1003B000096811F4806FFAD00321674A11604FF089
:1003C000AA015B4AC2F8AC104FF05501604A1160B7
:1003D0006249634A11604FF00001624A116043F2C2
:1003E0003A01534A1160704756480068C0F30160F3
:1003F000032868D15048006810F0030006D0012897
:1004000023D002283FD003285CD100E000BF4D4834
:100410000068C0F30E0000F101004FEA40014448BB
:10042000D0F88800C0F3074000F10100B1FBF0F004
:100430004D4900FB01F03D490968C9B201F10101D4
:10044000B0FBF1F0494908603CE03E480068C0F369
:100450000E0000F101004FEA40013548D0F8880055
:10046000C0F3074000F10100B1FBF0F0404900FB90
:1004700001F02E490968C9B201F10101B0FBF1F0A8
:100480003A4908601EE02F480068C0F30E0000F1F2
:1004900001004FEA40012648D0F88800C0F3074029
:1004A00000F10100B1FBF0F04FF4FA4100FB01F064
:1004B0001E490968C9B201F10101B0FBF1F02B49F5
:1004C000086000BF2FE01C48006810F0030006D051
:1004D000012810D0022819D0032823D100E000BF42
:1004E00012480068C0B200F101001F49B1FBF0F0F2
:1004F0001E49086016E00D480068C0B200F1010016
:100500001B49B1FBF0F0194908600BE0074800688F
:10051000C0B200F101004FF4FA41B1FBF0F0134911
:10052000086000BF00BF7047A0C10F4004C10F406A
:1005300000C00F40ACC10F400CC10F4084C00F4041
:100540008CC00F4088C00F4080C00F40A4C00F4037
:10055000ACC00F40A8C00F40A0C00F40DE872804E9
:10056000C4C00F40C8C10F4000093D00000000108A
:10057000001BB700002100E0491C8142FCD37047FA
:1005800000B503466B4803704FF004016A4841769A
:100590004FF47A70FFF7EEFF04216748417741F28C
:1005A0008830FFF7E7FF00BDF0B50A26B0FBF6F78D
:1005B00006FB1705B0FBF6F0B0FBF6F706FB1702DB
:1005C000B0FBF6F0B0FBF6F706FB1703B0FBF6F650
:1005D000F4B205F13006F5B202F13006F2B203F1E1
:1005E0003006F3B204F13006F4B20C704B708A702E
:1005F000CD70F0BD51480078514981F8500008464F
:1006000090F8400040F0FF004E4908704A48407C96
:1006100040F0F80148484174494890F8210040F002
:100620000700474981F82100704786B046A103C9F9
:10063000CDE9040146A1D1E900028968CDE9022192
:100640000190FFF75DFEFFF7D5FF02213A484177A1
:10065000012141774148006840F480504049C1F889
:10066000C4004FF0EF013448C1744FF010003D4911
:1006700008704FF040503C49C8603C483C49086015
:100680004FF000003649C1F8A801044605E004A96E
:10069000085DFFF775FF601CC4B2052CF7DB354819
:1006A000FFF768FF012124484176002405E001A9F5
:1006B000085DFFF765FF601CC4B201A8005D00285B
:1006C000F5D14FF0A060FFF755FF32E000BF28489A
:1006D000006B00F010001028F9D12548006AC0F323
:1006E0000B1025490880084600880C2190FBF1F08A
:1006F00022490880694621480088FFF755FF4CF2DF
:100700005030FFF737FF01210B4841778820FFF772
:1007100037FF1848FFF72EFF0121074841760024D4
:1007200005E01DF80400FFF72BFF601CC4B2042C89
:10073000F7DBCBE754C0092020C0092050C00920B6
:1007400000C0092040C00920380E060180000000CA
:1007500054454D502049533D00000000C4C00F4097
:1007600000C00F4023C0092000C002401003210038
:1007700000400340404B4C00080000100A000010ED
:1007800000093D000000000000000000040000001F
:04000005000000CD2A
:00000001FF
