:020000040000FA
:100000006802001069010000710100007301000026
:100010007501000077010000790100000000000078
:100020000000000000000000000000007B01000054
:100030007D010000000000007F0100008101000040
:1000400083010000830100008301000083010000A0
:100050008301000083010000830100008301000090
:100060008301000083010000830100008301000080
:100070008301000083010000830100008301000070
:100080008301000083010000830100008301000060
:100090008301000083010000830100008301000050
:1000A0008301000083010000830100008301000040
:1000B0008301000083010000830100008301000030
:1000C00083010000830100008301000000F002F8BA
:1000D00000F03AF80AA090E8000C82448344AAF1A8
:1000E0000107DA4501D100F02FF8AFF2090EBAE8A6
:1000F0000F0013F0010F18BFFB1A43F0010318475C
:100100007C0100009C010000103A24BF78C878C12F
:10011000FAD8520724BF30C830C144BF04680C600D
:10012000704700000023002400250026103A28BF55
:1001300078C1FBD8520728BF30C148BF0B60704759
:100140001FB51FBD10B510BD00F061F81146FFF7D7
:10015000F7FF00F0B5FA00F07FF803B4FFF7F2FF05
:1001600003BC00F083F800000948804709480047B5
:10017000FEE7FEE7FEE7FEE7FEE7FEE7FEE7FEE757
:10018000FEE7FEE704480549034A054B70470000B7
:1001900001030000CD00000068000010680200109C
:1001A0006800001010B5203AC0F00B80B1E818507C
:1001B000203AA0E81850B1E81850A0E81850BFF451
:1001C000F5AF5FEA027C24BFB1E81850A0E81850F0
:1001D00044BF18C918C0BDE810405FEA827C24BF44
:1001E00051F8043B40F8043B08BF7047D20728BFD2
:1001F00031F8023B48BF11F8012B28BF20F8023B21
:1002000048BF00F8012B704770477047704775462C
:1002100000F028F8AE4605006946534620F0070076
:10022000854618B020B5FFF7ADFFBDE820404FF080
:1002300000064FF000074FF000084FF0000B21F0D0
:100240000701AC46ACE8C009ACE8C009ACE8C0099D
:10025000ACE8C0098D4670470446AFF300802046E5
:10026000FFF77BFF00487047080000100149182085
:10027000ABBEFEE7260002007047000088070000C2
:1002800000000010080000000801000090070000B6
:1002900008000010600200002401000000000000BF
:1002A000000000000000000000000000000000004E
:1002B000000000000000000000000000000000003E
:1002C000000000000000000000000000000000002E
:1002D000000000000000000000000000000000001E
:1002E000000000000000000000000000000000000E
:1002F000000000000000000000000000FFFFFFFF02
:1003000000202021884A116000BF8749096811F048
:10031000400FFAD00321854A11604FF00001844A52
:10032000C2F8A811834A11604FF00101824A11609E
:100330004FF00B01814A11604FF00101A2F104025C
:1003400011604FF0AA017E4A11604FF05501784AC2
:10035000C2F88C1078490968022906D000BF794993
:10036000096811F0806FFAD004E0002000E0401C22
:100370006428FCD90321744A11604FF0AA016C4A29
:10038000C2F88C104FF055016D4A11604FF02301F7
:100390006E4A11604FF00101A2F1040211604FF0AA
:1003A000AA016B4A11604FF05501116000BF694905
:1003B000096811F4806FFAD00321674A11604FF089
:1003C000AA015B4AC2F8AC104FF05501604A1160B7
:1003D0006249634A11604FF00001624A116043F2C2
:1003E0003A01534A1160704756480068C0F30160F3
:1003F000032868D15048006810F0030006D0012897
:1004000023D002283FD003285CD100E000BF4D4834
:100410000068C0F30E0000F101004FEA40014448BB
:10042000D0F88800C0F3074000F10100B1FBF0F004
:100430004D4900FB01F03D490968C9B201F10101D4
:10044000B0FBF1F0494908603CE03E480068C0F369
:100450000E0000F101004FEA40013548D0F8880055
:10046000C0F3074000F10100B1FBF0F0404900FB90
:1004700001F02E490968C9B201F10101B0FBF1F0A8
:100480003A4908601EE02F480068C0F30E0000F1F2
:1004900001004FEA40012648D0F88800C0F3074029
:1004A00000F10100B1FBF0F04FF4FA4100FB01F064
:1004B0001E490968C9B201F10101B0FBF1F02B49F5
:1004C000086000BF2FE01C48006810F0030006D051
:1004D000012810D0022819D0032823D100E000BF42
:1004E00012480068C0B200F101001F49B1FBF0F0F2
:1004F0001E49086016E00D480068C0B200F1010016
:100500001B49B1FBF0F0194908600BE0074800688F
:10051000C0B200F101004FF4FA41B1FBF0F0134911
:10052000086000BF00BF7047A0C10F4004C10F406A
:1005300000C00F40ACC10F400CC10F4084C00F4041
:100540008CC00F4088C00F4080C00F40A4C00F4037
:10055000ACC00F40A8C00F40A0C00F40DE872804E9
:10056000C4C00F40C8C10F4000093D00000000108A
:10057000001BB700002100E0491C8142FCD37047FA
:100580000146634A107000BF614A127D02F02002EA
:10059000202AF9D1704700B588B05EA103C9CDE922
:1005A00006015EA207CA03AB07C35FA207CA8DE8B4
:1005B0000700002300BF05E006A9C85CFFF7E0FFC5
:1005C000581C83B206A8C05C0028F5D14FF4A000E7
:1005D000FFF7D0FF002305E003A9C85CFFF7D0FFB9
:1005E000581C83B203A8C05C0028F5D14FF4A000CA
:1005F000FFF7C0FF002305E01DF80300FFF7C0FF71
:10060000581C83B21DF803000028F5D14FF4A00058
:10061000FFF7B0FF08B000BD46480068464940EA11
:1006200001004649C1F8C4004FF050004449086039
:100630004FF08300364908734FF0000008714FF007
:10064000750008704FF010003E4908704FF003002D
:100650002F490873704710B58EB0002418223AA1B4
:1006600008A8FFF79FFD1C223DA101A8FFF79AFDF6
:1006700000BF05E008A9085DFFF782FF601C84B297
:1006800008A8005D0028F5D14FF4A000FFF772FF25
:10069000002405E001A9085DFFF772FF601C84B229
:1006A00001A8005D0028F5D11A20FFF769FF4FF47B
:1006B000A000FFF75FFF0120304908600EB010BDB9
:1006C000FFF71EFEFFF7A8FFF7212D48C174002099
:1006D0002B49C870DF212A482030C17420202949C5
:1006E0000870FFF758FF12E02448006878B92448E2
:1006F000C07DC410012C06D120212248C01EC17625
:10070000FFF7A9FF03E020211E48C01EC177EBE7D9
:1007100000C0004041540D0A0000000041542B432A
:100720005245473F0D0A000041542B434D47463D7B
:10073000310D0A00C4C00F400010000300C00F407C
:1007400000C0024028C0004041542B434D47533D58
:100750002238303935383230303030220D0A00003E
:1007600041616768206C616768206761796920680A
:1007700061692062686161676F21210004000010D7
:1007800000C0092023C0092000093D00000000002E
:04000005000000CD2A
:00000001FF
